:100000000C9446000C9465000C9465000C946500FB
:100010000C9465000C9465000C9465000C946500CC
:100020000C9465000C9465000C9465000C946500BC
:100030000C9465000C940C010C9465000C94650004
:100040000C9465000C9465000C9465000C9465009C
:100050000C9465000C9465000C9465000C9465008C
:100060000C9465000C9465000C9465000C9465007C
:100070000C9465000C9465000C9465000C9465006C
:100080000C9465000C9465000C94650011241FBE4F
:10009000CFEFD0E4DEBFCDBF11E0A0E0B1E0EAEEEB
:1000A000FAE000E00BBF02C007900D92AE31B1073D
:1000B000D9F721E0AEE1B1E001C01D92AC33B20747
:1000C000E1F70E94D9030C9473050C940000CF93C0
:1000D000DF9300D01F92CDB7DEB789837B836A831D
:1000E00089818A3031F48A819B81BC018DE00E9434
:1000F000670080EC90E0FC018081882F90E08072A6
:100100009927892BB1F386EC90E02981FC012083AB
:1001100080E090E00F900F900F90DF91CF910895C5
:10012000CF93DF9300D000D0CDB7DEB769837A8359
:100130008B839C8389819A81AB81BC8180930E01E2
:1001400090930F01A0931001B093110180910E01C3
:1001500090910F01A0911001B091110180931F01A6
:1001600090932001A0932101B093220100000F90F1
:100170000F900F900F90DF91CF910895CF93DF9361
:10018000CDB7DEB781E890E02BE0FC01208388E862
:1001900090E02DE730E0FC01318320838FE690E092
:1001A00022E0FC01208384E890E0FC0111821082AF
:1001B00080910E0190910F01A0911001B091110159
:1001C00080931F0190932001A0932101B0932201FD
:1001D0008FE590E02FE530E0F90120812068FC01F7
:1001E00020830000DF91CF910895CF93DF93CDB7A7
:1001F000DEB781E890E0FC0110820000DF91CF9132
:100200000895CF93DF93CDB7DEB781E080931E01D1
:100210000000DF91CF9108951F920F9200905F0030
:100220000F92112400905B000F922F933F934F93F6
:100230005F936F937F938F939F93AF93BF93EF934E
:10024000FF93CF93DF93CDB7DEB780911F019091DD
:100250002001A0912101B09122010197A109B109CA
:1002600080931F0190932001A0932101B09322015C
:1002700080911F0190912001A0912101B091220154
:10028000892B8A2B8B2B91F40E94010180910E0106
:1002900090910F01A0911001B091110180931F0165
:1002A00090932001A0932101B09322010000DF91DF
:1002B000CF91FF91EF91BF91AF919F918F917F91DE
:1002C0006F915F914F913F912F910F9000925B0042
:1002D0000F9000925F000F901F901895CF93DF93BF
:1002E000CDB7DEB72C970FB6F894DEBF0FBECDBFEB
:1002F0006D837E838F83988729873A874B875C87B6
:100300008D819E81AF81B88529853A854B855C8535
:10031000BC01CD010E945105DC01CB0189839A8388
:10032000AB83BC8389819A81AB81BC81892B8A2B69
:100330008B2B29F489859A85AB85BC8511C089856D
:100340009A85AB85BC858D839E83AF83B887898171
:100350009A81AB81BC8189879A87AB87BC87D0CFD4
:10036000BC01CD012C960FB6F894DEBF0FBECDBFF9
:10037000DF91CF910895CF93DF9300D000D0CDB718
:10038000DEB78B836C831A82198249C088E290E0C1
:1003900028E0FC0120838BE290E028E0FC01208330
:1003A00088E290E028E230E0F9012081422F2B81A1
:1003B000222F30E0098002C0359527950A94E2F794
:1003C0002170242BFC0120838BE290E02BE230E0B3
:1003D000F9012081422F2C81222F30E0098002C0B8
:1003E000359527950A94E2F72170242BFC01208390
:1003F00088E290E028E230E0F90120812260FC01EF
:1004000020838BE290E02BE230E0F9012081226032
:10041000FC01208389819A8101969A83898389814D
:100420009A8108970CF4B2CF88E290E028E230E09D
:10043000F90120812460FC0120838BE290E02BE213
:1004400030E0F90120812460FC01208388E290E003
:10045000FC0110828BE290E0FC01108200000F9002
:100460000F900F900F90DF91CF910895CF93DF936E
:1004700000D0CDB7DEB79A83898389819A81892B91
:1004800019F41A82198203C01A8219820000898124
:100490009A81892B31F580912301833010F01092DD
:1004A000230180912301882F90E0880F991F885E97
:1004B0009E4FFC0180819181282F80912301882FFC
:1004C00090E0880F991F8E5E9E4FFC018081918184
:1004D000622F0E94BB01809123018F5F80932301D3
:1004E000000089819A810F900F90DF91CF9108953C
:1004F000CF93DF93CDB7DEB72A970FB6F894DEBF60
:100500000FBECDBF9A87898780E290E0FC01808191
:10051000809588708D8380E290E0FC0180818095D9
:1005200084708E8380E290E0FC01808180958270EF
:100530008F8380E290E0FC018081882F90E08170C1
:10054000992721E0892B09F020E0288789859A8561
:1005500082309105C9F1833091052CF4009761F048
:10056000019769F154C084309105C1F1843091053F
:1005700084F10597C1F14BC08D81882329F081E07A
:1005800090E09A87898746C08E81882329F082E08F
:1005900090E09A8789873EC08F81882329F083E085
:1005A00090E09A87898736C08885882329F084E07F
:1005B00090E09A8789872EC01A8619862BC085E01D
:1005C00090E09A87898726C085E090E09A8789879E
:1005D00021C085E090E09A8789871CC085E090E083
:1005E0009A87898717C08D81882361F48E8188233B
:1005F00049F48F81882331F48885882319F41A8679
:10060000198608C085E090E09A87898703C01A861A
:100610001986000089859A8582309105D9F1833049
:10062000910534F4009709F4B0C0019749F0B6C0C1
:100630008430910509F481C004970CF455C0AEC014
:100640008091240118160CF4A2C0809124018F5FC0
:100650008093240119821AC08981882F90E0298112
:10066000222F30E0220F331F285E3E4FF9012081F8
:100670003181369527952068880F991F885E9E4F97
:10068000FC013183208389818F5F89838981833055
:1006900018F37DC08091240188230CF47AC08091E6
:1006A00024018150809324011A821AC08A81882FE4
:1006B00090E02A81222F30E0220F331F285E3E4F28
:1006C000F90120813181220F331F2160880F991F8A
:1006D000885E9E4FFC01318320838A818F5F8A83ED
:1006E0008A81833018F355C0809125018F3F0CF427
:1006F00052C0809125018150809325011B8219C031
:100700008B81882F90E02B81222F30E0220F331F26
:100710002E5E3E4FF90120813181220F331F880F59
:10072000991F8E5E9E4FFC01318320838B818F5FEA
:100730008B838B81833020F32EC080912501823002
:1007400064F5809125018F5F809325011C8219C07B
:100750008C81882F90E02C81222F30E0220F331FD4
:100760002E5E3E4FF9012081318136952795880F05
:10077000991F8E5E9E4FFC01318320838C818F5F99
:100780008C838C81833020F308C0000007C00000F8
:1007900005C0000003C0000001C0000089859A85E3
:1007A0002A960FB6F894DEBF0FBECDBFDF91CF9172
:1007B00008950F931F93CF93DF93CDB7DEB72D9797
:1007C0000FB6F894DEBF0FBECDBF81E290E0FC0112
:1007D000108282E290E02FEFFC01208387E290E01C
:1007E0002FEFFC01208388E290E0FC0110828AE276
:1007F00090E02FEFFC0120838BE290E0FC0110825F
:1008000086E291E09B878A8781E391E09D878C87D0
:1008100082E090E098878F838FEF89878985809326
:10082000260181E090E0A0E0B0E080932701909362
:100830002801A0932901B0932A018091270190916A
:100840002801A0912901B0912A0180932B01909356
:100850002C01A0932D01B0932E0186E392E090939A
:10086000300180932F0189858093310182E390E0EC
:10087000A0E0B0E08093320190933301A093340163
:10088000B09335018091320190913301A0913401F0
:10089000B09135018093360190933701A0933801D0
:1008A000B093390188E792E090933B0180933A013D
:1008B0008A859B85FC0181819281A381B4818B8390
:1008C0009C83AD83BE8381E090E09A83898325C0B9
:1008D00089819A81880F991F9E012F5F3F4F820F58
:1008E000931F0996FC0180819181FC012181328155
:1008F000438154818B819C81AD81BE81BC01CD013E
:100900000E946E01DC01CB018B839C83AD83BE838F
:1009100089819A8101969A83898329813A818F817D
:10092000988528173907A0F28B819C81AD81BE8103
:10093000BC01CD010E9490000E94BE001A82198263
:10094000A0C089819A81880F991F9E012F5F3F4F18
:10095000820F931F0996FC0180819181FC01258102
:1009600036814781508589819A81880F991FBE0100
:100970006F5F7F4F860F971F0996FC0180819181E1
:10098000FC0181819281A381B481281739074A072C
:100990005B0709F045C089819A81880F991F9E01E4
:1009A0002F5F3F4F820F931F0996FC010081118139
:1009B00089819A81880F991F9E012F5F3F4F820F77
:1009C000931F0996FC0180819181FC01218532856C
:1009D00089819A81880F991FAE014F5F5F4F840F05
:1009E000951F0996FC0180819181FC018081082E70
:1009F000000C990BF9010995F801808389819A818E
:100A0000880F991F9E012F5F3F4F820F931F0996FA
:100A1000FC0180819181FC0115821682178210866B
:100A200089819A81880F991F9E012F5F3F4F820F06
:100A3000931F0996FC016081718189819A81880FD9
:100A4000991F9E012F5F3F4F820F931F0996FC0154
:100A500080819181FC0125813681478150858B8180
:100A60009C81AD81BE81820F931FA41FB51FFB0126
:100A700085839683A783B08789819A8101969A831B
:100A8000898329813A818F8198852817390708F44D
:100A900058CF000080911E018823E1F310921E01BF
:100AA0004DCFA1E21A2EAA1BBB1BFD010DC0AA1F30
:100AB000BB1FEE1FFF1FA217B307E407F50720F0C7
:100AC000A21BB30BE40BF50B661F771F881F991F42
:100AD0001A9469F760957095809590959B01AC018B
:0A0AE000BD01CF010895F894FFCF87
:100AEA000000000200000000670000000000010092
:0E0AFA0000003C0024003C00EF00DF00BF00C5
:00000001FF
