:100000000C9446000C9465000C9465000C946500FB
:100010000C9465000C9465000C9465000C946500CC
:100020000C9465000C9465000C9465000C946500BC
:100030000C9465000C940C010C9465000C94650004
:100040000C9465000C9465000C9465000C9465009C
:100050000C9465000C9465000C9465000C9465008C
:100060000C9465000C9465000C9465000C9465007C
:100070000C9465000C9465000C9465000C9465006C
:100080000C9465000C9465000C94650011241FBE4F
:10009000CFEFD0E4DEBFCDBF11E0A0E0B1E0ECEBEC
:1000A000FAE000E00BBF02C007900D92AC31B1073F
:1000B000D9F721E0ACE1B1E001C01D92A434B20750
:1000C000E1F70E949D030C945C050C940000CF9313
:1000D000DF9300D01F92CDB7DEB789837B836A831D
:1000E00089818A3031F48A819B81BC018DE00E9434
:1000F000670080EC90E0FC018081882F90E08072A6
:100100009927892BB1F386EC90E02981FC012083AB
:1001100080E090E00F900F900F90DF91CF910895C5
:10012000CF93DF9300D000D0CDB7DEB769837A8359
:100130008B839C8389819A81AB81BC8180930E01E2
:1001400090930F01A0931001B093110180910E01C3
:1001500090910F01A0911001B091110180931D01A8
:1001600090931E01A0931F01B093200100000F90F7
:100170000F900F900F90DF91CF910895CF93DF9361
:10018000CDB7DEB781E890E02BE0FC01208388E862
:1001900090E02DE730E0FC01318320838FE690E092
:1001A00022E0FC01208384E890E0FC0111821082AF
:1001B00080910E0190910F01A0911001B091110159
:1001C00080931D0190931E01A0931F01B093200105
:1001D0008FE590E02FE530E0F90120812068FC01F7
:1001E00020830000DF91CF910895CF93DF93CDB7A7
:1001F000DEB781E890E0FC0110820000DF91CF9132
:100200000895CF93DF93CDB7DEB781E080931C01D3
:100210000000DF91CF9108951F920F9200905F0030
:100220000F92112400905B000F922F933F934F93F6
:100230005F936F937F938F939F93AF93BF93EF934E
:10024000FF93CF93DF93CDB7DEB780911D019091DF
:100250001E01A0911F01B09120010197A109B109D0
:1002600080931D0190931E01A0931F01B093200164
:1002700080911D0190911E01A0911F01B09120015C
:10028000892B8A2B8B2B91F40E94010180910E0106
:1002900090910F01A0911001B091110180931D0167
:1002A00090931E01A0931F01B09320010000DF91E5
:1002B000CF91FF91EF91BF91AF919F918F917F91DE
:1002C0006F915F914F913F912F910F9000925B0042
:1002D0000F9000925F000F901F901895CF93DF93BF
:1002E000CDB7DEB72C970FB6F894DEBF0FBECDBFEB
:1002F0006D837E838F83988729873A874B875C87B6
:100300008D819E81AF81B88529853A854B855C8535
:10031000BC01CD010E943A05DC01CB0189839A839F
:10032000AB83BC8389819A81AB81BC81892B8A2B69
:100330008B2B29F489859A85AB85BC8511C089856D
:100340009A85AB85BC858D839E83AF83B887898171
:100350009A81AB81BC8189879A87AB87BC87D0CFD4
:10036000BC01CD012C960FB6F894DEBF0FBECDBFF9
:10037000DF91CF910895CF93DF9300D000D0CDB718
:10038000DEB78B836C831A8219824DC08C818130D9
:1003900019F588E290E028E0FC01208388E290E0F3
:1003A00028E230E0F9012081422F2B81222F30E01A
:1003B000098002C0359527950A94E2F72170242B15
:1003C000FC01208388E290E028E230E0F9012081FE
:1003D0002260FC01208322C08BE290E028E0FC0137
:1003E00020838BE290E02BE230E0F9012081422F64
:1003F0002B81222F30E0098002C0359527950A9481
:10040000E2F72170242BFC0120838BE290E02BE2A9
:1004100030E0F90120812260FC01208389819A81EA
:1004200001969A83898389819A8108970CF4AECFCB
:100430008C81813051F488E290E028E230E0F901CB
:1004400020812460FC01208309C08BE290E02BE234
:1004500030E0F90120812460FC01208388E290E0F3
:10046000FC0110828BE290E0FC01108200000F90F2
:100470000F900F900F90DF91CF910895CF93DF935E
:1004800000D0CDB7DEB79A83898389819A81892B81
:1004900019F01A82198201C0000089819A81892B82
:1004A00009F026C0809112018F3E59F4809113010A
:1004B000813039F480E8809313018EEF809312012C
:1004C00016C080911301813069F480E88093130194
:1004D00080911201882F90E0880F991F816080938E
:1004E000120105C0809113018695809313010000CD
:1004F00088E290E020911301FC0120838BE290E0E0
:1005000020911201FC01208389819A810F900F9024
:10051000DF91CF910895CF93DF9300D000D0CDB776
:10052000DEB79C838B8380E290E0FC018081809524
:100530008270898380E290E0FC018081882F90E0C6
:100540008170992721E0892B09F020E02A838B8193
:100550009C818130910579F0823091051CF4892BC2
:1005600039F021C08230910559F0039771F01BC01A
:100570001C821B821BC083E090E09C838B8316C08F
:1005800083E090E09C838B8311C08981882331F4C0
:100590008A81882319F41C821B8208C083E090E0C2
:1005A0009C838B8303C01C821B8200008B819C81F7
:1005B0008130910531F082309105E4F0029761F0CD
:1005C0001EC0809121018F3FB9F080912101869555
:1005D00080618093210110C0809121018F3E70F0D5
:1005E00080912101882F90E0880F991F816080936E
:1005F000210104C0000003C0000001C00000809180
:10060000140161E00E94BB018091210162E00E941F
:10061000BB018B819C810F900F900F900F90DF9109
:10062000CF910895CF93DF9300D000D0CDB7DEB740
:100630009C838B8380E290E0FC01808180958870B0
:10064000898380E290E0FC018081809584708A83B8
:100650008B819C8181309105F9F0823091051CF4E9
:10066000892B39F031C082309105D9F00397F1F030
:100670002BC08981882329F081E090E09C838B83C3
:1006800026C08A81882329F082E090E09C838B83B6
:100690001EC01C821B821BC083E090E09C838B8366
:1006A00016C083E090E09C838B8311C089818823EE
:1006B00031F48A81882319F41C821B8208C083E0EC
:1006C00090E09C838B8303C01C821B8200008B8183
:1006D0009C818130910531F082309105B4F0029710
:1006E00051F018C080911501813888F4809115016E
:1006F00086958093150180911501882351F0809192
:100700001501880F8093150104C0000003C000008C
:1007100001C000008091150161E00E94BB01809141
:10072000220162E00E94BB018B819C810F900F909F
:100730000F900F90DF91CF9108950F931F93CF9358
:10074000DF93CDB7DEB72F970FB6F894DEBF0FBE9D
:10075000CDBF81E290E0FC01108282E290E02FEFB9
:10076000FC01208387E290E02FEFFC01208388E2E8
:1007700090E0FC0110828AE290E02FEFFC012083E0
:100780008BE290E0FC01108286E0E6E1F1E0DE0120
:100790001A9601900D928A95E1F783E090E0988790
:1007A0008F838FEF898789858093230184E690E08A
:1007B000A0E0B0E08093240190932501A09326014E
:1007C000B09327018091240190912501A0912601E9
:1007D000B09127018093280190932901A0932A01C9
:1007E000B0932B018EE392E090932D0180932C0126
:1007F000898580932E0184E690E0A0E0B0E08093AC
:100800002F0190933001A0933101B0933201809178
:100810002F0190913001A0913101B091320180936C
:10082000330190933401A0933501B09336018BE8E6
:1008300092E0909338018093370189858093390144
:1008400084E690E0A0E0B0E080933A0190933B0111
:10085000A0933C01B0933D0180913A0190913B01FE
:10086000A0913C01B0913D0180933E0190933F01E6
:10087000A0934001B093410182E193E09093430142
:10088000809342018A859B85FC0181819281A381AD
:10089000B4818B839C83AD83BE8381E090E09A8397
:1008A000898325C089819A81880F991F9E012F5FB6
:1008B0003F4F820F931F0996FC0180819181FC01BB
:1008C00021813281438154818B819C81AD81BE81A4
:1008D000BC01CD010E946E01DC01CB018B839C83A6
:1008E000AD83BE8389819A8101969A8389838981A8
:1008F0009A810297B8F28B819C81AD81BE81BC0147
:10090000CD010E9490000E94BE0082E090E09A8398
:100910008983A0C089819A81880F991F9E012F5FCA
:100920003F4F820F931F0996FC0180819181FC014A
:10093000258136814781508589819A81880F991F49
:10094000BE016F5F7F4F860F971F0996FC01808164
:100950009181FC0181819281A381B481281739079B
:100960004A075B0709F045C089819A81880F991F62
:100970009E012F5F3F4F820F931F0996FC0100815C
:10098000118189819A81880F991F9E012F5F3F4FA6
:10099000820F931F0996FC0180819181FC012185C2
:1009A000328589819A81880F991FAE014F5F5F4F11
:1009B000840F951F0996FC0180819181FC01808143
:1009C000082E000C990BF9010995F80180838981A3
:1009D0009A81880F991F9E012F5F3F4F820F931FAF
:1009E0000996FC0180819181FC0115821682178293
:1009F000108689819A81880F991F9E012F5F3F4F32
:100A0000820F931F0996FC016081718189819A810F
:100A1000880F991F9E012F5F3F4F820F931F0996EA
:100A2000FC0180819181FC012581368147815085BF
:100A30008B819C81AD81BE81820F931FA41FB51F46
:100A4000FB0185839683A783B08789819A8101966C
:100A50009A83898329813A818F819885281739075C
:100A600008F458CF000080911C018823E1F3109214
:100A70001C014BCFA1E21A2EAA1BBB1BFD010DC00E
:100A8000AA1FBB1FEE1FFF1FA217B307E407F5073E
:100A900020F0A21BB30BE40BF50B661F771F881F1A
:100AA000991F1A9469F760957095809590959B01B0
:0C0AB000AC01BD01CF010895F894FFCF08
:100ABC0000000002000000006700000000000100C0
:0C0ACC000000FE80FF1023012E01390104
:00000001FF
