:100000000C9446000C9465000C9465000C946500FB
:100010000C9465000C9465000C9465000C946500CC
:100020000C9465000C9465000C9465000C946500BC
:100030000C9465000C940C010C9465000C94650004
:100040000C9465000C9465000C9465000C9465009C
:100050000C9465000C9465000C9465000C9465008C
:100060000C9465000C9465000C9465000C9465007C
:100070000C9465000C9465000C9465000C9465006C
:100080000C9465000C9465000C94650011241FBE4F
:10009000CFEFD0E4DEBFCDBF11E0A0E0B1E0EAEEEB
:1000A000F7E000E00BBF02C007900D92AE31B10740
:1000B000D9F721E0AEE1B1E001C01D92AF32B20745
:1000C000E1F70E9482020C94F3030C940000CF939A
:1000D000DF9300D01F92CDB7DEB789837B836A831D
:1000E00089818A3031F48A819B81BC018DE00E9434
:1000F000670080EC90E0FC018081882F90E08072A6
:100100009927892BB1F386EC90E02981FC012083AB
:1001100080E090E00F900F900F90DF91CF910895C5
:10012000CF93DF9300D000D0CDB7DEB769837A8359
:100130008B839C8389819A81AB81BC8180930E01E2
:1001400090930F01A0931001B093110180910E01C3
:1001500090910F01A0911001B091110180931F01A6
:1001600090932001A0932101B093220100000F90F1
:100170000F900F900F90DF91CF910895CF93DF9361
:10018000CDB7DEB781E890E02BE0FC01208388E862
:1001900090E02DE730E0FC01318320838FE690E092
:1001A00022E0FC01208384E890E0FC0111821082AF
:1001B00080910E0190910F01A0911001B091110159
:1001C00080931F0190932001A0932101B0932201FD
:1001D0008FE590E02FE530E0F90120812068FC01F7
:1001E00020830000DF91CF910895CF93DF93CDB7A7
:1001F000DEB781E890E0FC0110820000DF91CF9132
:100200000895CF93DF93CDB7DEB781E080931E01D1
:100210000000DF91CF9108951F920F9200905F0030
:100220000F92112400905B000F922F933F934F93F6
:100230005F936F937F938F939F93AF93BF93EF934E
:10024000FF93CF93DF93CDB7DEB780911F019091DD
:100250002001A0912101B09122010197A109B109CA
:1002600080931F0190932001A0932101B09322015C
:1002700080911F0190912001A0912101B091220154
:10028000892B8A2B8B2B91F40E94010180910E0106
:1002900090910F01A0911001B091110180931F0165
:1002A00090932001A0932101B09322010000DF91DF
:1002B000CF91FF91EF91BF91AF919F918F917F91DE
:1002C0006F915F914F913F912F910F9000925B0042
:1002D0000F9000925F000F901F901895CF93DF93BF
:1002E000CDB7DEB72C970FB6F894DEBF0FBECDBFEB
:1002F0006D837E838F83988729873A874B875C87B6
:100300008D819E81AF81B88529853A854B855C8535
:10031000BC01CD010E94D103DC01CB0189839A830A
:10032000AB83BC8389819A81AB81BC81892B8A2B69
:100330008B2B29F489859A85AB85BC8511C089856D
:100340009A85AB85BC858D839E83AF83B887898171
:100350009A81AB81BC8189879A87AB87BC87D0CFD4
:10036000BC01CD012C960FB6F894DEBF0FBECDBFF9
:10037000DF91CF910895CF93DF9300D000D0CDB718
:10038000DEB78B836C831A8219824DC08C818130D9
:1003900019F588E290E028E0FC01208388E290E0F3
:1003A00028E230E0F9012081422F2B81222F30E01A
:1003B000098002C0359527950A94E2F72170242B15
:1003C000FC01208388E290E028E230E0F9012081FE
:1003D0002260FC01208322C08BE290E028E0FC0137
:1003E00020838BE290E02BE230E0F9012081422F64
:1003F0002B81222F30E0098002C0359527950A9481
:10040000E2F72170242BFC0120838BE290E02BE2A9
:1004100030E0F90120812260FC01208389819A81EA
:1004200001969A83898389819A8108970CF4AECFCB
:100430008C81813051F488E290E028E230E0F901CB
:1004400020812460FC01208309C08BE290E02BE234
:1004500030E0F90120812460FC01208388E290E0F3
:10046000FC0110828BE290E0FC01108200000F90F2
:100470000F900F900F90DF91CF910895CF93DF935E
:1004800000D0CDB7DEB79A83898389819A81892B81
:1004900019F41A82198203C01A8219820000898114
:1004A0009A81892B41F580912301833010F01092BD
:1004B000230180912301882F90E0880F991F8E5E81
:1004C0009E4FFC018081918161E00E94BB0180917F
:1004D0002301882F90E0880F991F885E9E4FFC01B2
:1004E0008081918162E00E94BB01809123018F5F36
:1004F00080932301000089819A810F900F90DF91F2
:10050000CF9108950F931F93CF93DF93CDB7DEB7AD
:100510002B970FB6F894DEBF0FBECDBF81E290E0FF
:10052000FC01108282E290E02FEFFC01208387E241
:1005300090E02FEFFC01208388E290E0FC01108224
:100540008AE290E02FEFFC0120838BE290E0FC0137
:10055000108284E291E09B878A8781E090E098870F
:100560008F838FEF898789858093240181E090E0D4
:10057000A0E0B0E08093250190932601A09327018D
:10058000B09328018091250190912601A091270127
:10059000B09128018093290190932A01A0932B0107
:1005A000B0932C018EE392E090932E0180932D0165
:1005B0008A859B85FC0181819281A381B4818B8393
:1005C0009C83AD83BE8381E090E09A83898325C0BC
:1005D00089819A81880F991F9E012F5F3F4F820F5B
:1005E000931F0996FC0180819181FC012181328158
:1005F000438154818B819C81AD81BE81BC01CD0141
:100600000E946E01DC01CB018B839C83AD83BE8392
:1006100089819A8101969A83898329813A818F8180
:10062000988528173907A0F28B819C81AD81BE8106
:10063000BC01CD010E9490000E94BE001A82198266
:10064000A0C089819A81880F991F9E012F5F3F4F1B
:10065000820F931F0996FC0180819181FC01258105
:1006600036814781508589819A81880F991FBE0103
:100670006F5F7F4F860F971F0996FC0180819181E4
:10068000FC0181819281A381B481281739074A072F
:100690005B0709F045C089819A81880F991F9E01E7
:1006A0002F5F3F4F820F931F0996FC01008111813C
:1006B00089819A81880F991F9E012F5F3F4F820F7A
:1006C000931F0996FC0180819181FC01218532856F
:1006D00089819A81880F991FAE014F5F5F4F840F08
:1006E000951F0996FC0180819181FC018081082E73
:1006F000000C990BF9010995F801808389819A8191
:10070000880F991F9E012F5F3F4F820F931F0996FD
:10071000FC0180819181FC0115821682178210866E
:1007200089819A81880F991F9E012F5F3F4F820F09
:10073000931F0996FC016081718189819A81880FDC
:10074000991F9E012F5F3F4F820F931F0996FC0157
:1007500080819181FC0125813681478150858B8183
:100760009C81AD81BE81820F931FA41FB51FFB0129
:1007700085839683A783B08789819A8101969A831E
:10078000898329813A818F8198852817390708F450
:1007900058CF000080911E018823E1F310921E01C2
:1007A0004DCFA1E21A2EAA1BBB1BFD010DC0AA1F33
:1007B000BB1FEE1FFF1FA217B307E407F50720F0CA
:1007C000A21BB30BE40BF50B661F771F881F991F45
:1007D0001A9469F760957095809590959B01AC018E
:0A07E000BD01CF010895F894FFCF8A
:1007EA000000000200000000670000000000010095
:0E07FA0000003C0024003C0017001B001D0006
:00000001FF
